:020000040800F2
:100000004809002029020008BF210008991D0008A6
:10001000BD2100080B050008B12600080000000003
:10002000000000000000000000000000C3210008E4
:100030002D06000800000000C1210008C5210008AD
:10004000430200084302000843020008430200087C
:10005000430200084302000843020008430200086C
:10006000430200084302000843020008430200085C
:10007000430200084302000843020008430200084C
:100080000D0500084302000843020008430200086F
:10009000430200084302000843020008430200082C
:1000A000430200084302000843020008430200081C
:1000B000430200084302000843020008430200080C
:1000C00043020008430200084302000843020008FC
:1000D0004302000843020008A52600084302000866
:1000E00043020008430200084302000843020008DC
:1000F00043020008430200084302000843020008CC
:1001000043020008430200084302000843020008BB
:1001100043020008430200084302000843020008AB
:10012000430200084302000843020008430200089B
:10013000430200084302000843020008430200088B
:10014000430200084302000843020008430200087B
:10015000430200084302000843020008430200086B
:10016000430200084302000843020008430200085B
:100170004302000843020008430200080000000098
:10018000430200084302000800F002F800F03CF8C7
:100190000AA090E8000C82448344AAF10107DA45E2
:1001A00001D100F031F8AFF2090EBAE80F0013F0F8
:1001B000010F18BFFB1A43F0010318472C3B000046
:1001C0004C3B0000103A24BF78C878C1FAD85207D7
:1001D00024BF30C830C144BF04680C6070470000C1
:1001E0000023002400250026103A28BF78C1FBD840
:1001F000520728BF30C148BF0B6070471FB503F0DE
:100200005DFD1FBD10B510BD00F046F91146FFF7AA
:10021000F5FF02F06DFD00F064F903B4FFF7F2FFA3
:1002200003BC00F06BF9000009488047094800470B
:10023000FEE7FEE7FEE7FEE7FEE7FEE7FEE7FEE796
:10024000FEE7FEE704480549054A064B70470000F3
:100250005D220008890100084803002048090020A9
:10026000480500204805002053EA020C00F0698090
:100270002DE9F04B4FF00006002B1FBFB3FA83F5BA
:1002800003FA05F424FA05F65E4012BF1643B2FAEB
:1002900082F502FA05F4C5F120051EBF22FA05FC1D
:1002A00044EA0C04203556EA044C4FEA144418BFC3
:1002B000641C4FF000084FF00009904271EB030CF2
:1002C00039D3002919BFB1FA81F701FA07F6B0FA5C
:1002D00080F700FA07F6C7F120071EBF20FA07FCD7
:1002E00046EA0C062037B6FBF4FCA7EB0507103FE7
:1002F00007F01F0BCBF120060CFA0BFB2CFA06F6CD
:1003000044BFB3460026202FA4BF5E464FF0000B2B
:100310005BEA060C08BF4FF0010B19EB0B09ABFBB6
:10032000027C48EB0608C01B06FB02CC0BFB03CC8F
:1003300071EB0C01C1E70B46024641464846BDE859
:10034000F08B13B54FF000004FF00001AFF30080C9
:10035000BDE81C407047032A40F2308010F0030CC7
:1003600000F0158011F8013BBCF1020F624498BF08
:1003700011F801CB00F8013B38BF11F8013BA2F1A5
:10038000040298BF00F801CB38BF00F8013B11F020
:10039000030300F02580083AC0F0088051F8043BC0
:1003A000083A51F804CBA0E80810F5E7121D5CBF2D
:1003B00051F8043B40F8043BAFF30080D20724BF60
:1003C00011F8013B11F801CB48BF11F8012B24BFF4
:1003D00000F8013B00F801CB48BF00F8012B704743
:1003E00010B5203AC0F00B80B1E81850203AA0E8D0
:1003F0001850B1E81850A0E81850BFF4F5AF5FEA04
:10040000027C24BFB1E81850A0E8185044BF18C9B6
:1004100018C0BDE810405FEA827C24BF51F8043B5D
:1004200040F8043B08BF7047D20728BF31F8023BB1
:1004300048BF11F8012B28BF20F8023B48BF00F845
:10044000012B70474FF0000200B5134694469646C4
:10045000203922BFA0E80C50A0E80C50B1F12001D7
:10046000BFF4F7AF090728BFA0E80C5048BF0CC085
:100470005DF804EB890028BF40F8042B08BF7047E3
:1004800048BF20F8022B11F0804F18BF00F8012B55
:100490007047704770477047754600F02BF8AE46BE
:1004A00005006946534620F00700854618B020B580
:1004B000FFF7C8FEBDE820404FF000064FF00007F0
:1004C0004FF000084FF0000B21F00701AC46ACE8FC
:1004D000C009ACE8C009ACE8C009ACE8C0098D4669
:1004E000704710B50446AFF300802046BDE81040C9
:1004F000FFF793BE00487047E8020020014918202A
:10050000ABBEFEE7260002007047FEE7014800F0A0
:10051000EBB800008802002001681823CAB2103A24
:10052000B2FBF3F2054B6FF30901032A9B5CC36531
:1005300000D9091D8165084670470000C63C0008C7
:1005400010B5014600208B698A6A4FF0C07453B120
:10055000B3F5005F15D072B1012A0CD0022A0AD07F
:10056000032A09D104E01AB1012A06D0022A03D1D4
:10057000C96AC90100D5012010BDC96AA142FAD0DB
:1005800010BD002AF7D0012AF2D0022AF3D0032AA4
:10059000F3D010BD30B50468256825F480252560AA
:1005A000046863608368402B036803D09960006827
:1005B000C26030BD9A600068C16030BD0E480168FD
:1005C00021F080710160016841F0807101600B4889
:1005D000016821F001010160016841F00101016041
:1005E0000021416000BF00BF00BF406808B100208B
:1005F0007047012070470000FCED00E0001000E0B3
:1006000031B5084C656800F06DFF0749B0FBF1F0AB
:1006100000994143081A00916168491B8142FBD34C
:1006200038BD0000001000E040420F00704772B675
:10063000FEE72DE9F0410446876D00F0E3FA064637
:1006400094F835000025022806D08020606584F8E3
:1006500034500120BDE8F0812068016821F01601C6
:1006600001602068416921F080014161206C08B976
:10067000A06C20B12068016821F0080101602068A9
:10068000016821F0010101600CE000F0BBFA801B61
:10069000052807D920206065032084F8350084F8F8
:1006A0003450D7E720680068C007EED194F85C109A
:1006B0003F208840B860012084F8350084F8345029
:1006C0000020C7E790F83510022903D0802141654A
:1006D00001207047052180F835100068016821F07D
:1006E00001010160002070472DE9F84304464FF0F6
:1006F0000009CDF8009063484FF41651A56D0068CD
:10070000B0FBF1F72E6894F85C10082000FA01F1B4
:1007100031420FD021680A6852070BD50A6822F0CF
:1007200004020A6094F85C108840A860606D40F094
:100730000100606594F85C104FF0010808FA01F0C0
:10074000304208D021684969090604D5A860606D67
:1007500040F00200606594F85C100420884030424C
:1007600008D021680968890704D5A860606D40F049
:100770000400606594F85C1010208840304218D066
:1007800021680968090714D5A86020680168490331
:1007900004D50068000308D5A16C07E00168C9050D
:1007A00003D4016821F008010160216C09B12046E1
:1007B000884794F85C1020208840304231D021686E
:1007C0000968C9062DD5A86094F835000528206869
:1007D000016806D0490347D5006800031DD4616C49
:1007E0001CE021F0160101602068416921F08001C0
:1007F0004161206C08B9A06C20B12068016821F02B
:100800000801016094F85C103F208840A86084F8DB
:10081000358084F83490216D1FE0E16B09B12046EA
:100820008847606D00282BD0606DC00714D005206C
:1008300084F835002068016821F00101016000980A
:10084000401C0090B84203D820680068C007F6D169
:1008500084F8358084F83490E16C002910D001B020
:100860002046BDE8F04308470168C905D5D40168B2
:1008700021F01001016084F8358084F83490CCE7D1
:10088000BDE8F883840000202DE9F041044600F023
:10089000B9F906465CB1022084F83500002584F8D9
:1008A00034502068016821F0010101600DE0012051
:1008B000BDE8F08100F0A6F9801B052805D92020AD
:1008C0006065032084F83500F2E720680068C007FF
:1008D000F0D12268116820480140D4E9010318438F
:1008E000D4E903363343184363691843A3691843B3
:1008F000E3691843236A18430843616A042903D152
:10090000D4E90B1319430843106020684069666AF4
:1009100020F0070130460E43012704280CD1A06ABD
:100920000643E06A40B12046FFF70AFE20B14020AE
:10093000606584F83570BAE7206846612046FFF7A5
:10094000EBFD94F85C203F2191408160656584F85F
:1009500035700020ACE700003F8010F02DE9F04139
:100960000446866D90F83400002501280DD0012042
:1009700084F8340094F835700020012F07D084F8F3
:10098000340002252846BDE8F0810220FBE702275B
:1009900084F8357060652046FFF7FCFD94F85C1024
:1009A0003F208840B0602068016841F01601016076
:1009B000206C20B12068016841F0080101602068C6
:1009C000016841F001010160DCE7000070B50446F8
:1009D00000F018F90546601C02D004480078044471
:1009E00000F010F9401BA042FAD370BD780000203F
:1009F0002DE9F84FDFF8BCA10022012503264FF0B6
:100A00000F090AF1040BAAF1040E00BF0B6805FAE6
:100A100002F42340A34270D10F7907F00307012F9E
:100A200001D0022F16D187684FEA420806FA08FC67
:100A300027EA0C07D1F80CC00CFA08FC4CEA070CAA
:100A4000C0F808C04768A7430C79C4F30014944069
:100A50003C4344600C79E443A4070AD0C4684FEADD
:100A6000420C06FA0CF7BC438F6807FA0CF72743D1
:100A7000C7600C7904F00304022C12D1D40800EBF7
:100A8000840CDCF820405707FF0E09FA07F824EA27
:100A90000804D1F8108008FA07F848EA0408CCF8EE
:100AA000208004684FEA420C06FA0CF7BC430F7929
:100AB00007F0030707FA0CF7274307604C6814F4A4
:100AC000403F70D03C4C276847F48047276024683B
:100AD00022F0030704F480440094384C07EB040C24
:100AE000DCF8084897074FEA177809FA08F7BC437B
:100AF000334FB84202D1002724E054E0314FB842CE
:100B000001D101271EE0304FB84201D1022719E080
:100B10002E4FB84201D1032714E02D4FB84201D126
:100B200004270FE02B4FB84201D105270AE02A4FD6
:100B3000B84201D1062705E0284FB84201D1072766
:100B400000E0082707FA08F72743CCF80878DAF816
:100B500000405746D1F804C09C435FEACC2C00D536
:100B60001C433C60DBF800405F46D1F804C09C4366
:100B70005FEA8C2C00D51C433C60DEF800407746D1
:100B8000D1F804C09C435FEA8C3C00D51C433C6018
:100B9000084F083F3C68D1F804C09C435FEACC3C56
:100BA00000D51C433C60521C102AFFF42FAFBDE857
:100BB000F88F0000083C01404438024000300140FA
:100BC000000002400004024000080240000C024005
:100BD000001002400014024000180240001C0240B5
:100BE0000069084000D001207047426921EA0203F1
:100BF0000A4043EA0241816170470AB1816170474E
:100C00000904FBE701488068704700007800002075
:100C100070B5040025D094F83D00002520B984F873
:100C20003C50204600F0F4FA242084F83D0020686F
:100C3000016821F0010101602068016841F4004170
:100C400001602068016821F40041016000F050FC5F
:100C50004D4A6168914201D84C4900E04C498842B4
:100C600001D2012070BD4B492368B0FBF1F15E68F1
:100C700026F03F060E435E606368934206D94FF448
:100C8000967359434FF47A73B1FBF3F12368491C0F
:100C90001E6A26F03F06314319626168914210D8FE
:100CA0004900401EB0FBF1F2521CC2F30B02042AB1
:100CB00001D2042022E0B0FBF1F0401CC0F30B0095
:100CC0001CE0A268F2B301EBC10303EB0116431E63
:100CD000B3FBF6F35B1C43F480431B0549D092B38E
:100CE00001EBC10202EB0111401EB0FBF1F0401C10
:100CF000C0F30B0040F4804040F400402168CA6912
:100D00004CF6FF739A431043C861D4E907100143BE
:100D10002068026822F0C00211430160D4E9030197
:100D200001432068826848F2FF339A43114381608F
:100D3000D4E9050108432168CA6822F0FF02104384
:100D4000C86001E00EE016E02068016841F0010192
:100D500001602564202084F83D00256384F83E501E
:100D6000002070BD01EB4106431EB3FBF6F35B1C94
:100D7000B3E70120C2E701EB4101401EB0FBF1F0F7
:100D8000401CC0F30B00B7E7A086010080841E0062
:100D900000093D0040420F002DE9FF4F81B0894618
:100DA0000446FFF72FFF054694F83D004FF000087A
:100DB00020287DD11923012250492046009501F0B9
:100DC000EDF8002874D194F83C00012870D001207F
:100DD00084F83C0020680168C90703D1016841F02C
:100DE000010101602068016821F400610160242094
:100DF00084F83D00002626644148E0624FF0011B64
:100E000020272068016841F480710160009500226C
:100E100059462046049B01F0C1F850B12068006893
:100E2000C00502D54FF400702064032005B0BDE872
:100E3000F08F216809F0FE000861FFF7E3FE2168EA
:100E4000054648694969C0F34000C1F380214FF06D
:100E5000A00A0FE0FFF7D6FE411B0498814200D89C
:100E600008B984F83DA0216848694969C0F3400089
:100E7000C1F3802194F83D20A02A02D008B90029AE
:100E8000E8D084F83D7020684169C943890716D4C9
:100E9000016841F40071016020684169806919238B
:100EA000012216492046009501F078F8B8B900E013
:100EB00021E084F83D7084F83C600020B6E70168CA
:100EC00041F40071016021686FF48060486119236A
:100ED00001220A492046009501F060F808B101207E
:100EE000A4E7039808F1010880458AD384F83D708F
:100EF00084F83C60F3E7022098E70000020010004D
:100F00000000FFFF2DE9F84F1F4690468A46044631
:100F1000DDF82890FFF776FE054694F83D0020287E
:100F200075D1192301226C492046009501F036F84D
:100F30000028F5D194F83C00012868D0012084F8FD
:100F40003C0020680168C90703D1016841F0010134
:100F500001602068016821F400610160222084F8AA
:100F60003D00102084F83E0000262664C4F824804A
:100F70006785608D20855948E0622B464A46514678
:100F8000204600F021FF002878D1208D544F68B111
:100F9000012814D002282068016816D041F480612D
:100FA0000160206841698069009087E0206841699C
:100FB00081690091016841F4007101607EE0206860
:100FC000016821F480610160F0E721F48061016033
:100FD0002068016841F40061E2E7032848D801284D
:100FE0000AD0022814D04B460022394620460095EC
:100FF00000F0D4FFD8BB27E02A464946204601F03E
:101000004CF8A0BB20680069616A08704DE061E09F
:101010004B46002239462046009500F0BFFF30BB0A
:101020002068016841F40071016020680069616A0C
:101030000870606A401C6062218D491E2185618DA7
:10104000491E618521682EE02068016821F48061D5
:10105000016020680069616A0870606A401C606213
:10106000208D401E2085608D401E6085D0E705E004
:101070002A464946204601F010F810B10120BDE88B
:10108000F88F20680069616A0870606A401C6062BD
:10109000218D491E2185618D491E618521684A691E
:1010A000D24352070AD409690170606A401C606229
:1010B000208D401E2085608D401E6085208D00287B
:1010C0008BD1202084F83D0084F83E6084F83C6099
:1010D0000020D4E70220D2E7020010000000FFFF4A
:1010E000040001002DE9F84F1F4690468A46044649
:1010F000DDF82890FFF786FD054694F83D0020288E
:101100007FD11923012240492046009500F046FF77
:10111000002876D194F83C00012872D0012084F890
:101120003C0020680168C90703D1016841F0010152
:1011300001602068016821F400610160212084F8C9
:101140003D00102084F83E0000262664C4F8248068
:101150006785608D20852D48E0622B464A465146C2
:10116000204600F0A7FE90B9206841698069009090
:1011700036E02A464946204600F0C2FF50B1206CB6
:10118000042804D12068016841F400710160012045
:10119000BDE8F88F606A216800780861606A401CC9
:1011A0006062618D491E6185218D491E89B221854C
:1011B00022685369DB435B070BD451B1007810619F
:1011C000606A401C6062608D401E6085208D401EFC
:1011D00020852A464946204600F0BAFE0028CED196
:1011E000208D0028C5D154F83D0B016841F40071F1
:1011F0000160202004F81E09E67766770020C7E723
:10120000FFE70220C4E70000020010000000FFFF1B
:1012100010B586B0044614216846FFF713F9144947
:101220002068884221D113480021026842F002025E
:101230000260006800F0020005904FF440600090EA
:101240001220CDE901010320039004200490694697
:101250000948FFF7CDFB07481030016841F48001D1
:101260000160006800F48000059006B010BD000029
:1012700000580040303802400004024002488168B3
:101280000278114481607047780000200B4810B547
:10129000016841F400710160016841F480610160FE
:1012A000016841F480710160032000F06FF80F20A5
:1012B00000F006F800F024F8002010BD003C0240C9
:1012C00070B50D4D04464FF47A712878B1FBF0F0FB
:1012D0000A490968B1FBF0F000F012FB48B9102C84
:1012E00007D200222146501E00F030F800206C602A
:1012F00070BD012070BD0000780000208400002037
:101300000A4808B5016841F480410160006800F4B2
:10131000804000900548001F016841F08051016045
:10132000006800F08050009008BD00004438024082
:10133000002809DB00F01F020121914040098000D4
:1013400000F1E020C0F8001170470000F0B40E4B2F
:101350001B680C46C3F30223C3F10705042D00D913
:101360000425191D072901D2002300E0DB1E0126F8
:1013700006FA05F1491E214099409E40761E16400E
:101380003143F0BC01F095B90CED00E0064900F0E6
:10139000070208684FF6FF03184040EA0220034A9C
:1013A00010430860704700000CED00E00000FA05F3
:1013B0002DE9F0470E46050065D0DFF81481D8F816
:1013C0000000F7B200F00700B04207D288F80070C2
:1013D000D8F8000000F00700B04254D128683D4C16
:1013E000810712D5400703D5206840F4E050206003
:1013F0002878000703D5206840F46040206020680A
:10140000A96820F0F000084320602878C0072DD09C
:10141000304968680839012812D0022813D00328FF
:1014200011D00968890700292DDA216821F003010C
:1014300001432160FFF7E6FB814641F2883A0EE066
:1014400009688903EFE709688901ECE7FFF7DAFB30
:10145000A0EB0901514502D90320BDE8F0872068BF
:10146000696800F00C00B0EB810FEFD1D8F80010E4
:10147000404601F00701B14207D90770006800F04B
:101480000700B04201D00120E7E72878400705D5E2
:101490002068E96820F4E0500843206028780007BD
:1014A00006D52068296920F4604040EAC100206028
:1014B00000F03EF82168084AC1F30311515CC840AE
:1014C0000649086006480068FFF7FAFE0020C4E7F6
:1014D000003C024008380240CE3C00088400002056
:1014E0007C00002001480068704700008400002054
:1014F0000448054900680968044AC1F38221515C27
:10150000C84070478400002008380240DE3C0008D4
:101510000448054900680968044AC1F34231515C36
:10152000C84070478400002008380240DE3C0008B4
:10153000154810B5006810F00C02144813D0144977
:10154000042A0FD0082A0ED10F4C241F22682368CA
:1015500002F03F025B0207D52068C0F38810A0FBB1
:10156000010106E0084610BD2168C1F38811A1FB06
:1015700000010023FEF778FE2168C1F30141491CF8
:101580004900B0FBF1F010BD083802400024F4001F
:1015900040787D012DE9F84F04006ED02078DFF807
:1015A0004C93C007A9F104054AD009F10400016871
:1015B000C1F38101012908D00068C0F3810002282D
:1015C0000AD1D9F80000400206D52868800337D533
:1015D00060680028E1D033E06068B0F5803F10D04B
:1015E000B0F5A02F286810D020F48030286028683B
:1015F00020F4802028606068A8B1FFF703FB06464E
:101600000DE0286840F48030F4E740F48020286042
:10161000F7E700BFFFF7F6FA801B642873D8286845
:101620008003F7D50CE0FFF7EDFA064605E000BFB2
:10163000FFF7E8FA801B6428F0D828688003F7D405
:101640002078DFF8AC8280074FF0000A3ED5A7482B
:10165000001D016811F00C0F08D00068C0F3810074
:1016600002280BD1D9F80000400207D4286880076F
:1016700016D5E068012800D112E033E1E068B8B186
:101680000120C8F80000FFF7BDFA064605E000BFDC
:10169000FFF7B8FA801B0228C0D828688007F7D562
:1016A0002868216920F0F80040EAC10028600DE0B8
:1016B000C8F800A0FFF7A6FA064604E0FFF7A2FA72
:1016C000801B02281FD828688007F7D420780007DD
:1016D00022D5864F87486169703771B10121016059
:1016E000FFF790FA064604E0FFF78CFA801B022809
:1016F00009D838688007F7D50EE0C0F800A0FFF7DA
:1017000081FA064605E082E0FFF77CFA801B02289A
:101710007DD838688007F7D42078400768D5DFF88F
:10172000CCB100270BF13C0BDBF80000C0000BD460
:10173000DBF8001041F08051CBF80010DBF800001E
:10174000012700F0805000906B4E3068C00510D427
:10175000306840F480703060FFF754FA009005E084
:10176000FFF750FA0099401A022850D83068C00597
:10177000F6D55E4EA0686C3601280FD0052830687B
:1017800010D020F001003060306820F0040030609C
:10179000A068B8B1FFF736FA00900FE0306840F06B
:1017A0000100F4E740F004003060F7E7FFF72AFAA1
:1017B0000099411A41F28830814266D8306880072A
:1017C000F4D50EE0FFF71EFA009007E0FFF71AFAD3
:1017D0000099411A41F28830814256D8306880071A
:1017E000F4D42FB1DBF8001021F08051CBF80010B9
:1017F000A069C8B33D49091D0968C1F381010229E7
:101800004AD00228504607D0C8F8600000E03CE00B
:10181000FFF7F8F904463BE04746C8F86000FFF7D9
:10182000F1F9064605E000BFFFF7ECF9801B02283E
:101830002BD828688001F7D4D4E907010843A16AAE
:101840002E4A490802EB0141626A41EA82110843CB
:1018500094F82C1040EA0161C9F8001001203866A4
:10186000FFF7D0F9044606E03EE000BFFFF7CAF9F3
:10187000001B022809D828688001F7D534E000BF92
:10188000FFF7C0F9001B022802D90320BDE8F88F3A
:1018900028688001F4D427E00128F7D0D9F80000A7
:1018A000E26900F4800191421CD1226A00F03F01FC
:1018B000914217D147F6C071626A0140B1EB821FB5
:1018C00010D1A26A4FF0FF3300F4403103EB520213
:1018D000B1EB024F06D194F82C1000F07060B0EB21
:1018E000016F01D00120D1E70020CFE7043802408A
:1018F00000004742800E4742007000400000FFFF9A
:1019000010B5401EB0F1807F01D3012010BD4FF013
:10191000E02460610F21601700F0CBFE0020A06181
:1019200007202061002010BD70477047F8B501689E
:1019300004460868CA684B6910F00F0F4FF00005A5
:1019400059D003F0010602F49077374365D0C10700
:1019500005D0D10503D5216C41F001012164410777
:1019600005D5D90703D0216C41F00201216481071C
:1019700005D5D90703D0216C41F00401216401078A
:1019800007D502F02001314303D0216C41F008015A
:101990002164216C00293AD0800604D5900602D536
:1019A000204600F013FD20684069216CC0F38010D0
:1019B000090700D460B3204600F0D3FC20684069DA
:1019C000400621D52068143050E8001F21F0400166
:1019D00040E80012002AF5D1A06BA8B16C4901655E
:1019E000A06BFEF76FFE002811D0A06B016D01B057
:1019F000BDE8F040084783060FD593060DD5204675
:101A0000BDE8F84000F0E2BC2046FFF78EFFF8BDCD
:101A10002046FFF78AFF2564F8BD266B2023012EA0
:101A200079D1C60677D5D60675D50868486800907E
:101A30004869400640D5A16B086840680004000C66
:101A4000EAD0A28D8242E7D9E085C869B0F5807FEF
:101A50002DD020680C3050E8001F21F4807140E840
:101A60000012002AF5D12068143050E8001F21F040
:101A7000010140E80012002AF5D12068143050E836
:101A8000001F21F0400140E80012002AF5D184F83F
:101A90003E30256320680C3050E8001F21F0100113
:101AA00040E80012002AF5D1A06BFEF7C2FDA08D20
:101AB000E18D401A81B229E0A08DE18D401A81B2FA
:101AC000E08D0028A8D00029A6D020680C3050E86E
:101AD000002F22F4907240E80026002EF5D12068F5
:101AE000143050E8002F22F0010240E80026002EBA
:101AF000F5D184F83E30256320680C3050E8002F83
:101B000022F0100240E80023002BF5D12046FFF719
:101B10000BFFF8BDFFE705062BD5150629D594F870
:101B20003D002128F5D1A068B0F5805F01D1206982
:101B3000B0B1206A411C2162216800784860E08CC5
:101B4000401E0004000CE084E3D12068C16821F04D
:101B50008001C1602068C16841F04001C160D8E7E0
:101B6000206A0088C0F308004860206A801C206258
:101B7000E5E74006CDD55006CBD5CA68204622F011
:101B80004002CA6084F83D3000F005F9C1E700006A
:101B90006D22000870B5040004D094F83D000025C3
:101BA00010B106E0012070BD84F83C50204600F0E2
:101BB00023F8242084F83D002068C16821F40051F6
:101BC000C160204600F062FC2068016921F4904168
:101BD00001612068416921F02A0141612068C168E2
:101BE00041F40051C1602564202084F83D0084F850
:101BF0003E00002070BD000070B586B0064614217E
:101C00006846FEF71FFC2349306888423FD12248CE
:101C10000025016841F400310160006800F40030E3
:101C200005901D481038016841F00101016000680D
:101C3000694600F0010005900C2000900220CDE9DB
:101C4000010503200390072004901448FEF7D0FEFE
:101C5000144C134820604FF00060C4E901054014A3
:101C6000C4E903506561A561E561256220466562AE
:101C7000FEF70AFE08B1FEF7DAFCB4630022114653
:101C80002620A663FFF762FB2620FFF751FB06B074
:101C900070BD000000440040403802400000024097
:101CA000886002408802002090F83E30202B0ED140
:101CB00059B152B190F83C30012B08D0012380F883
:101CC0003C300023036300F067BC01207047022012
:101CD00070470000014801F08DBA000006000020A6
:101CE000704700002DE9F843044690F83D001F4678
:101CF00016460D4620284CD1C5B1BEB194F83C0023
:101D0000012846D0012084F83C004FF00008C4F8B8
:101D10004080212084F83D00FEF774FFA6848146B0
:101D2000E684A068B0F5805F03D004E00120BDE840
:101D3000F883206928B12E465FF0000584F83C80C6
:101D40000EE00026FAE78021204600F06FFCA0B9E3
:101D5000AEB116F8010B21684860E08C401EE084AB
:101D6000E08C4B464FF0000200970028EBD14FF07B
:101D70004001204600F05AFC30B10320D7E735F887
:101D8000020BC0F30800E6E7202084F83D000020A5
:101D9000CDE70220CBE77047FEE701684A69D243EE
:101DA00052050FD46FF480624A61002140F8301F61
:101DB000202242738173026942F0040202610173BE
:101DC00001207047002070472DE9F84F0446C06A93
:101DD0001E4693460D4621680A6842F480620A60F6
:101DE000082807D0012805D010F5803F02D0206BCD
:101DF000112804D12068016841F4807101604FF01E
:101E000001195B46002249462046009600F0C6F8BC
:101E10004FF4007840B120680068C00501D5C4F8CF
:101E200040800320BDE8F88F2069DFF884A0B0F57A
:101E3000804F0FD00620216800EAD51747F0F00048
:101E4000086133465A460AF10601204600F0DAF8E6
:101E500058BB03E0E8B240F001001CE02168E8B2A2
:101E6000086133465A465146204600F0CBF8E0B9A7
:101E70002068416981690091016841F480710160C5
:101E80005B46002249462046009600F087F800286D
:101E9000C1D147F0F1002168086133465A465146E6
:101EA000204600F0AFF80028BCD00120BAE70000BF
:101EB00002000100F8B50446C06A1E460D461746EA
:101EC000082807D0012805D010F5803F02D0206BEC
:101ED000122804D12068016841F480710160134622
:101EE00000224FF001112046009600F057F840B153
:101EF00020680068C00502D54FF4007020640320FC
:101F0000F8BD2069B0F5804F0ED00620216800EAA8
:101F1000D51040F0F000086133463A460B492046A0
:101F200000F070F878B902E005F0FE0000E0E8B2D9
:101F300021680861054933463A46891F204600F06A
:101F400061F80028DCD00120F8BD00000800010085
:101F500070B516460D4604460DE02046FFF71DFFFE
:101F600008B1012070BD681C05D0FEF74BFE801B38
:101F7000A84207D835B120684069C0434007ECD477
:101F8000002070BD002044F8300F20216173A07341
:101F9000216941F0200121612073E2E72DE9F0473A
:101FA0001E4690460D460446C1F30747DDF82090D3
:101FB00008E0701C06D0FEF725FEA0EB0900B04239
:101FC0000FD876B12068012F18D0806925EA00006B
:101FD0000004000C14D000214145EAD00020BDE8E7
:101FE000F087002044F8300F20216173A07321692D
:101FF00041F02001216120730120F0E74069E5E70D
:102000000121E9E72DE9F0479A4691460E4604463C
:1020100000254FF02008C1F3074725E020684069FC
:10202000C043400514D42068016841F40071016088
:1020300021686FF480604861256384F83D8084F8EE
:102040003E50206C40F00400206484F83C501FE0B7
:10205000B9F1FF3F08D0FEF7D5FDA0EB0A014945D5
:102060000CD8B9F1000F09D02068012F13D0806976
:1020700026EA00000004000C0BD0CFE744F8305FE4
:1020800084F80D80A573206940F02000206125733D
:102090000120BDE8F0874069EAE72DE9F04100251D
:1020A00090460E460446202717E04069C043C0060C
:1020B0000CD454F8301B6FF01000486144F81059EC
:1020C0006777A577206A2062257717E0FEF79AFDEB
:1020D000A0EB0800B04208D83EB120684169C9436E
:1020E0004906E2D40020BDE8F08144F8305F677310
:1020F000A573206940F02000206125730120F2E7DC
:1021000070B516460D4604460DE02046FFF745FE25
:1021100008B1012070BD681C05D0FEF773FD801B5F
:10212000A84207D835B120684069C0430006ECD406
:10213000002070BD002044F8300F20216173A0738F
:10214000216941F0200121612073E2E770B586B07A
:1021500014216846FEF776F916480024016841F01C
:1021600080010160016801F080010591016841F082
:1021700001010160016801F001010591016841F070
:102180000201016000680C4E00F002004FF400757F
:102190000590002229463046FEF72FFD01200095CC
:1021A000CDE90104694630460394FEF721FC06B0F0
:1021B00070BD00003038024000040240FEE7FEE738
:1021C00070477047FFF75AB830B593B03021684672
:1021D000FEF738F914210CA8FEF734F91D48002544
:1021E000016841F080510160006800F0805011905A
:1021F0001948016841F4804101600068022400F43C
:1022000080401190012003901020049000940694C7
:102210000820CDE90750A820CDE9090404200B903F
:102220006846FFF7B7F908B172B6FEE70CA90F20B0
:1022300081E831004FF4A0500F904FF4805010907F
:1022400005210CA8FFF7B4F8002801D072B6FEE70C
:1022500013B030BD403802400070004002480168B1
:1022600041F470010160704788ED00E010B5806BAB
:102270000021C185C184FFF758FB10BD70B5846B88
:102280002068406994F83D10C0F3C0100025212952
:1022900004D118B1E584204600F08AF8206840692E
:1022A00094F83E10C0F38010222904D118B1E585BE
:1022B000204600F056F8206C40F0100020642046C4
:1022C000FFF733FB70BD10B50146806B09680968E4
:1022D000C9052FD40021C18501680C3151E8002FB8
:1022E00022F4807241E80023002BF5D101681431FB
:1022F00051E8002F22F0010241E80023002BF5D124
:102300000168143151E8002F22F0400241E8002317
:10231000002BF5D1202180F83E10016B012909D155
:1023200001680C3151E8002F22F0100241E800232F
:10233000002BF5D1016B012902D0FFF7CBFC10BDBA
:10234000818DFFF7F1FA10BD10B5806B016B01298B
:1023500002D0FFF7C5FC10BD818D4908FFF7E4FAF4
:1023600010BD01680C3151E8002F22F4907241E851
:102370000023002BF5D10168143151E8002F22F021
:10238000010241E80023002BF5D1016B012909D19D
:1023900001680C3151E8002F22F0100241E80023BF
:1023A000002BF5D1202180F83E10002101637047F9
:1023B00001680C3151E8002F22F0C00241E80023EF
:1023C000002BF5D1202180F83D10704708B590F81A
:1023D0003E10222901D0022008BD82684FF48053AC
:1023E0009A4201D1016921B1816A9A421BD04AB156
:1023F0000AE00268816A5268C2F308020A80816AB0
:10240000891C08E0026972B10268526802F07F021A
:102410000A70816A491C8162C18D491E0904090C38
:10242000C18503D019E002685268F1E70168CA6803
:1024300022F02002CA600168CA6822F48072CA6071
:1024400001684A6922F001024A61202180F83E10A9
:10245000016B012903D0FFF73DFC002008BD0021DE
:10246000016301680C3151E8002F22F0100241E8AD
:102470000023002BF5D101680A68D20602D50A684C
:1024800049680091818DFFF74FFAE6E770B5044681
:1024900000680169E26821F440511143016121693A
:1024A000A068E26908436169114308432168CA686A
:1024B00049F20C639A430243CA6020684169A269E9
:1024C00021F440711143416131492068884202D0B2
:1024D0003049884202D1FFF71BF801E0FFF708F806
:1024E000E2690023192164253226B2F5004F6268A3
:1024F00028D0A0FB0101930F9200FDF7B5FE014625
:10250000B0FBF5F06FF01802504301EB800006EBD2
:102510000010B0FBF5F000F0F002B1FBF5F002EBBB
:102520000012B1FBF5F06FF01803584301EB800087
:1025300006EB0010B0FBF5F000F00F00216810442E
:10254000886070BDA0FB010192185B41FDF78CFE15
:102550000146B0FBF5F00201B1FBF5F06FF0180396
:10256000584301EB800006EBC000B0FBF5F000F033
:10257000F80002EB4002B1FBF5F0584301EB80009C
:1025800006EBC000B0FBF5F000F00700D6E7000056
:10259000001001400014014038B581628285002599
:1025A000134604460564222084F83E00A26B1C48B2
:1025B000D063A26B1B481064A26B1B48D064A06B55
:1025C0000A4605652168A06B091DFEF7C7F920685A
:1025D00001684068009084F83C50206948B1206848
:1025E0000C3050E8001F41F4807140E80012002ACE
:1025F000F5D12068143050E8001F41F0010140E897
:102600000012002AF5D12068143050E8001F41F074
:10261000400140E80012002AF5D1002038BD00003A
:10262000C7220008492300087D2200082DE9F04157
:10263000984617460E460446069D27E0681C25D09E
:102640002DB1FEF7DFFAA0EB0800A8421ED92068E2
:102650000C3050E8001F21F4D07140E80012002A2D
:10266000F5D12068143050E8001F21F0010140E846
:102670000012002AF5D1202084F83D0084F83E00A5
:10268000002084F83C000320BDE8F0812068006849
:1026900036EA000004D00020B842CFD00020F3E793
:1026A0000120F9E70148FFF741B90000DC000020F4
:1026B000FEE70907090E002804DB00F1E02080F89E
:1026C0000014704700F00F0000F1E02080F8141DA6
:1026D0007047034610B50020024604E09C5C521C83
:1026E0002044C0B2D2B28A42F8D310BD70B59FED7B
:1026F0002B0B0D462DED0A8B044653EC102B91ED60
:10270000028B51EC180B01F0AFF895ED009B53ECE8
:10271000192B00F0E1FD95ED04BB53EC1B2B00F0F1
:10272000DBFD94ED060B41EC1A0B53EC1B2B51EC2B
:10273000100B01F099F894ED040B41EC1B0B53ECDA
:10274000182B51EC100B01F08FF894ED020B41ECBB
:102750001C0B53EC182B51EC100B01F085F894ED89
:10276000000B41EC180B53EC192B51EC100B01F042
:102770007BF853EC182B00F0AFFD53EC1C2B00F052
:10278000ABFD53EC1B2B00F0A7FD53EC1A2B00F014
:1027900057FEBDEC0A8B41EC100B70BD0000000031
:1027A0000000004070B50D462DED0A8BB0EE408A5A
:1027B000F0EE608A04469FED7CCB9FED7D9B90ED13
:1027C000040B51EC180B53EC102B01F011F802D252
:1027D00085ED00CB35E094ED040B51EC180B53EC78
:1027E000102B01F03FF921D894ED020B51EC180B9E
:1027F00053EC102B00F0FCFF18D894ED040B94ED73
:1028000002BB53EC102B51EC1B0B01F06DF941ECAA
:102810001A0B53EC182B51EC1B0B01F065F953EC20
:102820001A2B00F00DFEC5E900010AE094ED020B41
:1028300051EC180B53EC102B01F014F901D285ED7B
:10284000009B94ED040B51EC180B53EC102B00F093
:10285000CFFF62D394ED040B51EC180B53EC102B0B
:1028600001F000F91FD894ED020B51EC180B53EC5A
:10287000102B00F0BDFF16D894ED04AB94ED020BC5
:1028800053EC1A2B51EC100B01F02EF941EC1B0B01
:1028900053EC1A2B51EC180B01F026F941EC100BFC
:1028A00053EC1B2B29E094ED020B51EC180B53EC6D
:1028B000102B01F0D7F827D894ED000B51EC180B32
:1028C00053EC102B00F094FF1ED894ED041B94EDF4
:1028D000020B53EC112B51EC100B01F005F994EDA8
:1028E000000B41EC1A0B53EC182B51EC100B01F0C0
:1028F000FBF853EC1A2B41EC100B51EC100B00F0D1
:102900009FFDC5E902010AE094ED000B51EC180BA4
:1029100053EC102B01F0A6F801D285ED029B94ED4B
:10292000020B51EC180B53EC102B00F061FF04D29A
:1029300085ED049BBDEC0A8B70BD94ED020B51EC50
:10294000180B53EC102B01F08DF821D894ED000BEF
:1029500051EC180B53EC102B00F04AFF18D894EDF3
:10296000040B94ED029B53EC102B51EC190B01F06E
:10297000BBF841EC1A0B53EC192B51EC180B01F07E
:10298000B3F853EC1A2B00F05BFDC5E90401D1E765
:1029900094ED000B51EC180B53EC102B01F062F886
:1029A000C8D285ED04CBC5E7000000000000F03F71
:1029B000000000000000000070B515462DED028BF0
:1029C0000E460446012B62D0022B5DD194ED040B20
:1029D00094ED028B53EC102B51EC180B01F084F8A2
:1029E00096ED041B53EC112B00F03EFF53EC182B1B
:1029F00001F06EF8C5E9000194ED048B94ED020B33
:102A000053EC182B51EC100B01F06EF896ED021BF5
:102A100053EC112B00F028FF53EC182B00F05CFC5A
:102A2000C5E9020194ED041B94ED020B53EC112B4C
:102A300051EC100B01F058F896ED021B53EC112BE2
:102A400000F012FF94ED001B53EC112B01F040F845
:102A5000C5E9040194ED040B94ED028B53EC102BAB
:102A600051EC180B01F040F841EC100B96ED001BF7
:102A700051EC100B53EC112B00F0F6FE53EC182B1D
:102A800000F02AFCC5E90601BDEC028B70BD94ED97
:102A9000040B94ED028B53EC102B51EC180B01F04E
:102AA00023F896ED001B53EC112B00F0DDFE53ECE8
:102AB000182B01F00DF8C5E9000194ED048B94ED9D
:102AC000020B53EC182B51EC100B01F00DF896EDA6
:102AD000021B53EC112B00F0C7FE53EC182B00F037
:102AE000FBFBC5E9020194ED041B94ED020B53ECD2
:102AF000112B51EC100B00F0F7FF96ED021B53EC7D
:102B0000112B00F0B1FE94ED001B53EC112B00F0E3
:102B1000DFFFC5E9040194ED040B94ED028B53EC47
:102B2000102B51EC180B00F0DFFF41EC100B96ED71
:102B3000041B9DE780ED040B80ED021B80ED002B54
:102B4000704780ED040B80ED021B80ED002B704779
:102B500070B58AB014A10646D1E900016425144C71
:102B60000095CDE90101062301AA21786068FEF7EE
:102B7000B9FA0095102303AA21786068FEF7C2F91C
:102B8000BDF81100ADF81C00BDF81300ADF81E0033
:102B9000BDF81500ADF8200007983060BDF82000A2
:102BA000B0800AB070BD000055AA110020300000AE
:102BB0007000002070B594B022A10646D1E9000152
:102BC0006425224C0095CDE90101062301AA217854
:102BD0006068FEF787FA0095322307AA21786068BB
:102BE000FEF790F99DF8200029280BD1BDF82100AF
:102BF000ADF80C00BDF82300ADF80E00BDF82500BF
:102C0000ADF810009DF830002A2813D1BDF831002E
:102C1000ADF81200BDF83300ADF81400BDF8350072
:102C2000ADF81600BDF83700ADF81800BDF8390052
:102C3000ADF81A00102203A93046FDF78CFB14B042
:102C400070BD000055AA1100213100007000002065
:102C500030B5044685B03220FDF7B8FE1E4D6C60DD
:102C60000024A1B20A2301226868FEF795F800B992
:102C70002C70641CFF2CF4DB18A16424D1E9000142
:102C80000094CDE90301062303AA29786868FEF7BA
:102C900029FA0094062301AA29786868FEF732F918
:102CA0009DF80400552812D19DF80500AA280ED1E0
:102CB0009DF8060011280AD19DF8070038B99DF843
:102CC00008002E2803D19DF809003E2802D00320D9
:102CD00005B030BD0020FBE77000002055AA1100B0
:102CE0002C3C00000149486070470000680000204B
:102CF0002DED068B88B0FEF7C9FAFFF765FAFFF7EE
:102D000025FAE0480024016841F4001101600068E0
:102D1000224600F40010009021461020FEF716FB1A
:102D20001020FEF705FBD948D74901604FF4E13187
:102D3000C0E901140C21C460C0E904418461C4618C
:102D4000FEF728FF08B172B6FEE7D048D0495438E4
:102D50000160D049C0E901144FF48041C0E903414A
:102D600044618461C4610462FDF752FF08B172B628
:102D7000FEE7C6485438FFF76BFF20B94FF4805187
:102D8000C548FDF732FF6846FFF7E2FEC34C0098E6
:102D90002060BDF80400A080FDF710FCBB49C048CE
:102DA0005431012208608A802831022208608A801A
:102DB0002831BC4A10230A608B802831DB0208606E
:102DC0008B8028310A6042158A8028310860C0143F
:102DD00088809FEDB52B9FEDB61B9FEDB78B01F162
:102DE0002800B0EE480AF0EE680AFFF7A3FE9FED58
:102DF000B4ABB0EE481AF0EE681AB0EE4A2AF0EE24
:102E00006A2A9FEDB18BB248B0EE480AF0EE680A2C
:102E1000FFF797FE9D48FFF765FF00F019FAAC48F1
:102E20003038A0F18005A0F1C80BA0F58076A0F1A4
:102E3000A00AA0F15009A0F17808A0F12807069097
:102E40006846FFF7B7FE9148102269464430FDF707
:102E500082FA182268460699FDF7C2FA05F1700059
:102E60000FC800F037F984ED160B18225946684652
:102E7000FDF7B6FA06F128000FC800F02BF984ED33
:102E80000C0B182251466846FDF7AAFA06F15000CD
:102E90000FC800F01FF984ED0E0B18224946684652
:102EA000FDF79EFA05F120000FC800F013F984ED3C
:102EB000120B182241466846FDF792FA06F1780097
:102EC0000FC800F007F984ED100B18223946684648
:102ED000FDF786FA05F148000FC800F0FBF884ED15
:102EE000140B94ED0E0B53EC102B94ED0C0B51ECDA
:102EF000100B00F0B7FD0BD894ED0C0B53EC182B16
:102F000051EC100B00F0AEFD02D294ED0C0B15E06D
:102F100094ED0E0B53EC102B94ED0C0B51EC100BAD
:102F200000F066FC0DD894ED0E0B53EC182B51EC11
:102F3000100B00F097FD04D294ED0E0B84ED040B02
:102F400001E084ED048B94ED120B53EC102B94ED07
:102F5000100B51EC100B00F085FD0BD894ED100B0D
:102F600053EC182B51EC100B00F07CFD02D294EDC9
:102F7000100B15E094ED120B53EC102B94ED100B8D
:102F800051EC100B00F034FC0DD894ED120B53EC07
:102F9000182B51EC100B00F065FD04D294ED120BD0
:102FA00084ED060B01E084ED068B94ED140B53ECDD
:102FB000182B51EC100B00F055FD02D894ED140BBA
:102FC00003E0B0EE480AF0EE680A84ED080B94EDD9
:102FD000160BB0EE489AF0EE689A53EC192B51ECB0
:102FE000100B00F03FFD04D894ED160B84ED0A0B96
:102FF00001E084ED0A9B94ED040B53EC192B51EC8A
:10300000100B00F02FFD17D2314994ED040B18314D
:10301000A1F13000FFF7C6FB2D4A01233032A2F1A7
:1030200018012B48FFF7C8FC2949183101F1180095
:10303000FFF75CFB84ED180B94ED180B53EC192B88
:1030400051EC100B00F00EFD0ED294ED180B53EC6A
:103050001A2B51EC100B00F03FF900F085FB052313
:10306000002280B20F2109E094ED180B51EC100BF7
:1030700000F07AFB002280B20523114600F0F0F840
:10308000DEE600003038024000440040DC00002052
:1030900000580040A0860100000C02400000002003
:1030A000000002400004024000000000000039401F
:1030B00000000000000034400000000000002E402E
:1030C0000000000000003E40000000000000000082
:1030D000380200200FB4002270B52DED028B86B0AF
:1030E000BDF834500C982946FDF787FD1421684639
:1030F000FDF7A8F9012000240095CDE9010403940F
:1031000069460C98FDF774FC012229460C98FDF7DE
:1031100074FD0520FDF774FA002229460C98FDF78E
:103120006CFD40F2EE20FDF76BFA02200095CDE930
:10313000014069460C98FDF75BFC9FED288B44F637
:10314000440629460C98FDF74BFD70B19DED0E0B22
:1031500053EC182B51EC100B00F0CAFA12D1204698
:1031600000F02FFBCDE90E010CE029460C98FDF78D
:1031700037FD38B9732C05DD204600F022FBCDE980
:10318000100105E00120FDF73BFA641CB442D8DBD6
:103190009DED0E0B9DED101B53EC102B51EC110B04
:1031A00000F0A2FC9FED0F1B53EC112B00F048F92F
:1031B0009FED0E1B53EC112B00F056FB41EC180B4E
:1031C0000A20FDF71DFA06B0B0EE480AF0EE680AD4
:1031D000BDEC028B70BC5DF814FB00000000000029
:1031E000000000000000000000004D400000000052
:1031F0000000E03F15490A78A52A20D14A785A2ACA
:103200001DD18978012201290CD002290CD0032973
:103210000CD004290CD005290CD006290CD0072984
:103220000CD00CE002700AE0427008E0827006E008
:10323000C27004E0027102E0427100E08271034951
:10324000032208464068FEF72FBD000068000020FA
:103250000249032208464068FEF726BD68000020A8
:10326000F0B585B014460D4606461F46142214A13B
:103270006846FDF7B5F8300A8DF803008DF8046054
:10328000280A8DF805008DF80650200A8DF80700F1
:103290008DF808408DF8097010216846FFF719FA7B
:1032A0008DF80F000B480123102269464068FEF795
:1032B00019FD10B1002005B0F0BD0120FBE70000B2
:1032C000A55A0300000000000000000000000000FC
:1032D000000000006800002010B591EA030F48BF0D
:1032E00083F0004300F10884841A71EB030C05D2CB
:1032F000121943EB0C03001B61EB0C01DFF824E116
:103300004FEA1154A4EB135C1EEA430F18BF9EEA68
:10331000445F73D023EA0E03DCF1200E21EA04514E
:1033200043F4801332D322FA0CFE10EB0E0023FA82
:103330000CFE41EB0E01CCF1200E03FA0EFE10EB59
:103340000E0051F10001B1F5801FCCF1200E32D2F8
:1033500001EB045112FA0EF2BDE8104058BF70475D
:10336000401C38BF5FEA420218BF7047002814BFF4
:1033700020F0010041F100014FEA410313F5001F65
:1033800038BF7047A1F1C04100F066BB012A43EB92
:103390000302ACF1200CDCF11F0E32BF4FF0000E27
:1033A00023FA0CF310EB030041EB0451B4EB115F73
:1033B000D0D0A1EB045101F5801149085FEA30003B
:1033C00001EB04510ED350F1000038BF12FA0EFE8B
:1033D00008D1BDE81040C9E7401C38BF5FEA42028F
:1033E000CAD1C3E7BDE810404FEA410313F5001FFF
:1033F00038BF7047A1F1C04100F02EBB9EEA445F88
:1034000008D011EA5E0FBDE8104004BF01F0004192
:1034100000207047BDE8104070B500F0CFFA00BF43
:1034200064FBBE3E0000E0FF491058BFC1F14041BF
:103430005B1058BFC3F140438B42EFF300807047ED
:103440002DE9C04130B4DFF8A0C23CEA111418BF26
:103450003CEA131400F0EC8081EA03051CEA111425
:1034600044EAD57418BF1CEA131500F0C780A4EB1A
:1034700005044FF0004545EAC12145EAC32341EA6E
:10348000505143EA525304F17F74994204F50034D9
:103490004FEAC0204FEAC22208BF904200F09C8051
:1034A0004FEA13650FF24016765D4FEA134506FBAF
:1034B00005F7C7F1807706FB07F74FEAD737A7FB79
:1034C00003687642C8F58038A7FB06CE38BFA8F15E
:1034D000010807FB08E64FF0000EA6FB028CE6FB96
:1034E00003CEDCF1000CCEF1004E38BFAEF1010E80
:1034F000A6FB0C584FF000074FF00005E6FB0E87C7
:10350000A1FB08C6A0FB07CE16EB0E0645F1000591
:10351000E1FB076515F1E04E7EBFA4F580345FEA5C
:1035200046066D4116F1800745F100054FEA172761
:103530004FEA066647EA0567A6F1DE46B6F1805F08
:103540004FEA15251FD9384624F0010C05EBC4714C
:10355000BCF1FE6F01EB0C1102D8F0BCBDE800819C
:1035600024425CBF01F5801E9EEAC47F02D4F0BCF9
:10357000BDE80081244238D4F0BCA1F1C041BDE8CF
:10358000004100F069BA4FEAD22242EA43524FEAC0
:10359000D323A7FB02864FEAD02040EA415007FB25
:1035A00003661EEA0E0F4FEAD12105FB026658BFE3
:1035B000A6EB0056B6EB00564FEA520E4EEAC37E1B
:1035C00018EB0E0E56EB530EBDD518EB02085E41FC
:1035D0007F1C55F10005B6E74FF480154FF000074A
:1035E0004FF000064FF00008ADE7F0BC4FF00000D0
:1035F00001F1C04101F00041BDE8008111EA0C1F5A
:103600000CEA131500D00CE013EA0C1F00F0258023
:103610004FF00000F0BC81EA030101F00041BDE879
:103620000081F0BCBDE8004181EA030100F014BA5A
:10363000F0BCBDE8004170B500F0C0F9097EFC3E69
:1036400000F007B881EA03014FF0000001F00041EB
:10365000704781EA030100F0FFB9F0BCBDE800410A
:103660004FF0000021497047FFFDFBF9F7F5F4F238
:10367000F0EEEDEBE9E8E6E4E3E1E0DEDDDBDAD80D
:10368000D7D5D4D3D1D0CFCDCCCBCAC8C7C6C5C46B
:10369000C2C1C0BFBEBDBCBBBAB9B8B7B6B5B4B382
:1036A000B2B1B0AFAEADACABAAA9A8A8A7A6A5A46D
:1036B000A3A3A2A1A09F9F9E9D9C9C9B9A99999831
:1036C0009797969595949393929191908F8F8E8ED4
:1036D0008D8C8C8B8B8A8989888887878685858461
:1036E00084838382828181800000FF070000F87F4D
:1036F00051EA030C17D41CF5801F58BFBCF5801F7E
:1037000000F10680994218BF704708BF9042704789
:1037100007D711F5801F58BF13F5801F19D49942A0
:103720007047894270471CF5801F08D5BCF5801F83
:10373000F7D58B4218BF704708BF824270474FF4DD
:10374000001C1CEB410F38BF1CEB430F01D28B4216
:10375000704770B500F032F9922449004FF00051E3
:103760004FF08053FFF760BE4FEA1153A3F580631B
:10377000D3F11E03A8BFD3F1200C08DB4FF00042A9
:1037800042EAC12252EA505232FA03F0704709422B
:103790000BD4102BC4BF0020704703F5787CBCF11C
:1037A000FF3F05D04FF0FF3070474FF000007047EB
:1037B00070B500F003F900BF4992248000207047E3
:1037C000F0E710F0004248BF4042B0FA80F310FA30
:1037D00003F10AD0C3F11D0303F580634FEA4150A2
:1037E00002EB035202EBD12170474FF0000070470B
:1037F00051EA030C17D41CF5801F58BFBCF5801F7D
:1038000000F10680994218BF704708BF9042704788
:1038100007D711F5801F58BF13F5801F19D499429F
:103820007047894270471CF5801F08D5BCF5801F82
:10383000F7D58B4218BF704708BF824270474FF4DC
:10384000001C1CEB410F38BF1CEB430F01D28B4215
:10385000704770B500F0B2F8922449004FF0005163
:103860004FF08053FFF7E0BDDFF848C170B51CEAA8
:10387000111E1EBF1CEA13159EEA0C0F95EA0C0FD1
:1038800000F06F8081EA030423EA4C134EEAD47EF1
:1038900021EA4C1141F4801143F48013AE44A1FBA2
:1038A000024CA0FB0365AEF17F7E361955EB0C058B
:1038B000A1FB034C4CF10003A0FB021C16EB0C0611
:1038C000654153F10003094218BF46F0010613F4A5
:1038D000007F0BD14FEA03314FEA0530340341EA50
:1038E000155140EA16506FF003020AE04FEAC32177
:1038F0004FEAC520F40241EA555140EA56506FF0B4
:10390000020202EB2E4201EB025585EACE710AD08B
:103910005FEA440C18BF24F0004450F1000041F16C
:10392000000120EAD47040F2FE7C624500D270BDF6
:10393000A84214BF4FF080444FF04044002E08BF0F
:103940000024BEF1806FA8BFA1F1C041BDE8704066
:1039500080F282804FF0000001F1C04101F000418F
:1039600070479EEA0C0F0CEA131518BF95EA0C0F6E
:1039700006D04FF0000081EA030E0EF0004170BD4A
:1039800000F01CF88900013E00F007B800F009B80B
:103990004FEA430C5FEA5C5C08D081EA030100F067
:1039A0005BB84FEA410C5FEA5C5CF6D14FF0000077
:1039B000014970470000FF070000F87F0EF1020E7A
:1039C0002EF0030E5EF8046B364205D4012A43EB59
:1039D000030515F5001F12D8012841EB010C1CF559
:1039E000001F0CD80ED14FEAD17C15F5001F0CEB4F
:1039F0004C0C0CF1020C08BF4CEBD37C04E04FF0F4
:103A0000080C01E04FEAD37C0CEB4C0526FA05F6D6
:103A100006F00706B6F1040C06D20EEB860CBDE8E4
:103A200070404CF0010C6047DFE80CF0090B02021B
:103A30004FF000414FF00000A1F5002170BD194684
:103A40001046012851EB010418BFD4F5001484BFBF
:103A5000002001F0004170BD0808A0F500114FEAF8
:103A60003101704753EA010C17D41CF5801F58BF71
:103A7000BCF5801F00F106808B4218BF704708BF5D
:103A80008242704707D713F5801F58BF11F5801F7A
:103A900019D48B4270479B4270471CF5801F08D594
:103AA000BCF5801FF7D5994218BF704708BF9042F8
:103AB00070474FF4001C1CEB430F38BF1CEB410F49
:103AC00001D2994270470FB40CBC03BCFFF7C1BED2
:103AD00091EA030F10B581F000413FF505AC83F08A
:103AE000004300F009B8000010B591EA030F48BF89
:103AF00083F000433FF5F8AB841A71EB030C07D257
:103B000012198CF0004C43EB0C03001B61EB0C0111
:103B1000DFF8A4E14FEA1154A4EB135C1EEA430F53
:103B200018BF9EEA445F00F0B08023EA6E03524261
:103B300021EA0451C3EB6E0338BF5B1EDCF1200E9B
:103B400025D322FA0CFE10EB0E0043FA0CFE41EBDB
:103B50000E01CCF1200E03FA0EFE10EB0E0051F117
:103B60000001CCF1200E29D412FA0EF201EB04511F
:103B7000BDE8104058BF7047401C1CBFB2F1004F59
:103B8000704700280CBF491C20F00100704712EB61
:103B9000020E43EB030218BF4FF0010E4EEA420241
:103BA000ACF1200CDCF11E0E54D943FA0CFE10EBE4
:103BB0000E0051F1FF31CCF11E0ED5D50EF1010EE4
:103BC00012FA0EFE404141EB010101EB445C5FEA59
:103BD0005C5C10D910EBDE7001EB045138BFBEF114
:103BE000004FBDE8104018BF704700280CBF491CAB
:103BF00020F00100704730D24FEAD42C11F50011AB
:103C000024F400641BD0B1FA81F20B3AA41AA41E6A
:103C1000D2F12003914030FA03F31943904001EBB5
:103C2000CC71002C01EB0451BDE81040A8BF7047D7
:103C300001F1C0414FF0000001F000417047B0FABF
:103C400080F310FA03F100D110BDE41A173C4805C7
:103C5000C90AE4E701EB045110BD491001EB04511E
:103C6000BDE810404FEA300002E04FF0000170471D
:103C70004A0008BF0042F8D0B2F5001F28BF7047C5
:103C800001F000414FF0000070479EEA445F07D00A
:103C900011EA5E0FBDE8104004BF0021002070470C
:103CA000BDE8104070B5FFF789FE00BF40DFF63E6B
:103CB00083F00041104670470000E0FF4FF0407075
:103CC000E1EE100A704700061016000610160000FC
:103CD00000000000000001020304060708090000BC
:103CE0000000010203040000083D0008000000205D
:103CF00088000000C4010008903D000888000020F2
:103D0000C0080000E0010008000000000000000002
:103D100000000000000000000000000000000000A3
:103D20000000000000000000000000000000000093
:103D30000000000000000000000000000000000083
:103D40000000000000000000000000000000000073
:103D50000000000000000000000000000000000063
:103D60000000000000000000000000000000000053
:103D70000000000000000000000000000000000043
:103D80000100000010000000000000000024F4000A
:040000050800018965
:00000001FF
